:100000000C94CB000C94F3000C94F3000C94F300CC
:100010000C94F3000C94F3000C94F3000C94F30094
:100020000C94F3000C94F3000C9496250C94052684
:100030000C94F3000C94F3000C94F3000C94F30074
:100040000C94F3000C94F3000C94F3000C94F30064
:100050000C94F3000C94F3000C94F3000C94AB2775
:100060000C94F3000C94F3000C94F3000C94F30044
:100070000C94F3000C94F3000C94F3000C94F30034
:100080000C94F3000C94F3000C94F3000C94F30024
:100090000C94F3000C94F3000C94F3000C94F30014
:1000A0000C94F3000C94F3000C94F3006364696EF9
:1000B0006F70737578585B000000000200090F0034
:1000C00000030401000C000000000000000000001C
:1000D00000000000000000070605040100080A0BEC
:1000E0000C0D090403090412010002000000406D18
:1000F0000447C5000101020301556E6B6E6F776EF8
:1001000000555342205265636569766572000000B0
:100110000000250028002B002E0031000000000008
:10012000240027002A002D003000040404040403E6
:100130000405020202020403020202020606060687
:1001400006060404020202040404080201104080AE
:1001500040102040804080080204018040201002AE
:10016000011080102040402005010902A1018501F5
:100170000509190129081500250195087501810255
:1001800005010930093109381581257F7508950366
:100190008106C000282811241FBECFEFDAE0DEBFA1
:1001A000CDBF11E0A0E0B1E0E8E7F4E602C00590C1
:1001B0000D92A23FB107D9F723E0A2EFB1E001C051
:1001C0001D92A23BB207E1F710E0CBECD0E004C0F7
:1001D0002197FE010E94252FCA3CD107C9F70E9432
:1001E0003A2A0C943A320C940000CF93DF93FC012E
:1001F000818190918E03482F490F5527551F483014
:1002000051059CF5A281B381109709F52AE833E0E6
:1002100033832283208120938C0380938D038091EC
:100220008F03820F808320919003A22FB0919103BE
:100230008A2F821B8917E8F481813D91C82FD0E075
:10024000C259DD4F38838F5F8183F2CFD901189671
:100250002D913C91199721153105C1F72AE833E01A
:1002600019963C932E931897D5CF80E0DF91CF91CC
:10027000089581E0FBCF8CBD9DBD089590E0FC0109
:10028000E75BFE4F2491865D9E4FFC01849188239D
:1002900099F090E0880F991FFC01E45EFE4FA59154
:1002A000B491FC01E25FFE4F859194918FB7F89471
:1002B000EC91E22BEC938FBF0895FC01818D928D20
:1002C0000895089540910B0250910C02209109026B
:1002D00030910A0242175307B4F49091E8009570E8
:1002E000E1F39091E80092FD19C08093F1008091B4
:1002F0000B0290910C0201968F739927892B19F4A8
:100300008EEF8093E80080910B0290910C02019691
:1003100090930C0280930B0281E0089580E0089591
:10032000DF92EF92FF920F931F93CF93DF93D82E1C
:100330008A01EB017B01E40EF51ECE15DF0559F0B5
:10034000D7FE12C0FE0184910E94620121968111A4
:10035000F4CF0FEF1FEFC801DF91CF911F910F91E5
:10036000FF90EF90DF9008958881EECF8091010299
:1003700081110BC01092FD0181E08093FE0110926B
:1003800000021092FF01809301028DEF91E0089529
:100390000F931F93CF93DF931F92CDB7DEB71982D0
:1003A0000E94B601DC0112960D911C9101151105F8
:1003B00089F0D801ED91FC910280F381E02DBE011E
:1003C0006F5F7F4FC801099597FD04C0F801008554
:1003D0001185ECCF89810F90DF91CF911F910F9103
:1003E0000895E82FF0E0E952FF4FE49190917B00EF
:1003F0008E2F880F880F80729F7D892B80937B00C2
:10040000E770E064E0937C0080917A0080648093E0
:100410007A0080917A0086FDFCCF809178009091DF
:10042000790008953FB7F8948091F9019091FA010D
:10043000A091FB01B091FC0126B5A89B05C02F3F00
:1004400019F00196A11DB11D3FBFBA2FA92F982FFA
:100450008827BC01CD01620F711D811D911D42E0F5
:10046000660F771F881F991F4A95D1F708958F92BD
:100470009F92AF92BF92CF92DF92EF92FF924B0189
:100480005C010E9412026B017C010E9412026C1935
:100490007D098E099F09683E734081059105A8F387
:1004A00021E0821A9108A108B10888EEC80E83E005
:1004B000D81EE11CF11C81149104A104B10429F798
:1004C000FF90EF90DF90CF90BF90AF909F908F9074
:1004D00008956F927F928F929F92AF92BF92CF9228
:1004E000DF92EF92FF920F931F93CF93DF93C82E6B
:1004F0008B017A0180911102811111C08FEF9FEF62
:10050000DF91CF911F910F91FF90EF90DF90CF90EF
:10051000BF90AF909F908F907F906F900895809143
:100520000F0280FF05C08091E00082608093E000B0
:10053000CE2DDF2DD12C8AEFB82E8C2D8770982EE2
:1005400090E4892E8C2D8072782E8C2D8074682EEC
:100550002AE3A22E209719F4DD2009F45DC08FB79D
:10056000F8949092E9009091E80095FD0BC08FBF40
:10057000BA94BB2019F261E070E080E090E00E9444
:100580003702E8CF9091F200282D291B8FBF22233C
:1005900079F32C171D0611F00CF02C2F3FB7F894AF
:1005A0009092E9008091E80085FD02C03FBFD2CF64
:1005B000822F90E0C81BD90B772029F02150A0F0A2
:1005C0001092F100FBCFF801C7FC0AC0215050F097
:1005D00041914093F100FACF44914093F10031965C
:1005E0002150D0F7080F191FDD2021F0A092E8005C
:1005F000D12CDCCF8091E80085FD07C0A092E800F7
:10060000DD24D394209791F2F3CF209779F66620DA
:1006100069F2A092E800CACF5D9884E680930E024A
:10062000C7016ECF1F93CF93DF9300D000D01F92EE
:10063000CDB7DEB79091B10399838A836B831C8217
:1006400080919B0381112AC011E010938E031093B7
:100650008F0384E993E09093910380939003109229
:1006600093031092920383EE91E090938B03809317
:100670008A03109296031092950310929803109299
:1006800097031093990310939A0381EC809394033A
:100690000E94B6010E94F50010939B0381E08D83B8
:1006A00041E050E0BE016B5F7F4F80918D030E945F
:1006B000690297FD0AC080918D0344E050E0BE01BD
:1006C0006F5F7F4F80640E9469020F900F900F90C0
:1006D0000F900F90DF91CF911F91089581E080934B
:1006E000B10360E080E00E9412031092B10360E069
:1006F00080E00C9412032FB7F8946091F50170918B
:10070000F6018091F7019091F8012FBF0895DC0167
:10071000FB0112962C911297848195812817190656
:1007200041F491818081813A31F49D7F81E0913063
:1007300009F080E008958132E1F79B3029F482814D
:100740001F968C9381E008959A3099F78281509694
:100750008C93F8CFDC01FB0188E4808389E48183FA
:1007600084E482831D969C911D979F709F5B938369
:100770001D968D919C9124E0969587952A95E1F799
:100780008F708F5B848385E00895EF92FF920F93C3
:100790001F93CF93DF93FB012081213871F52381D3
:1007A000223259F5DC0112964C9124813581421791
:1007B000130619F5EC010B851C85F12CE12C0115B4
:1007C000110589F0F801448155816281738180E8C7
:1007D0000E9490018F3F980749F0E80EF91ED8015A
:1007E0000D911C91ECCF81E08F87C701DF91CF91F4
:1007F0001F910F91FF90EF90089590E080E0F6CF69
:10080000CF93DF93CDB7DEB769970FB6F894DEBF0D
:100810000FBECDBFFC01DB018C918F5F8C939E01DD
:100820002D5F3F4F8DE0D9011D928A95E9F729E0B0
:10083000298384E08A8391E09D8383E08E832A87E5
:1008400021E22B879C879D879F8722E2288B27E0C8
:100850002B8B25E02C8B8E8B20E430E0388F2F8B78
:10086000998F82818B8395858685998B8A8B8381ED
:1008700080688D8B49E150E0BE016F5F7F4F80E063
:100880000E94900169960FB6F894DEBF0FBECDBFEF
:10089000DF91CF910895CF93DF93EC018A819B8103
:1008A000DC01ED91FC910480F581E02D6A850995CC
:1008B0008A85813439F4EA81FB81EA58FF4F8081CF
:1008C000846080831A861B861C861D861E861F8672
:1008D000188A80E0DF91CF91089581E0693009F0B6
:1008E00080E00895FC01828508950F931F93CF93B4
:1008F000DF93FC018B01EA0180819181892B31F129
:100900009281992349F128813981232BF9F0D8016B
:100910002D913C91D9014C918381682F691B770BF4
:1009200080819181860F971FDC014C9382818150D9
:10093000828388819981019799838883D8018D91D9
:100940009C91119701968D939C93DACF80E0DF9173
:10095000CF911F910F9108958381828381E0F7CF1A
:10096000DF92EF92FF920F931F93CF93DF93EC01EF
:1009700085E0E62EF12CFE01869FE00DF11D11248D
:10098000908596FF24C0192F177001E085E0D82EBE
:100990008FEF800F8F3008F001E0602F70E0062F9E
:1009A000D69EF001D79EF00D1124EC0FFD1F80851F
:1009B0008695869586958770181701F16F5F7F4F32
:1009C000603168F38D81811302C011501D8385E071
:1009D0008E9DF0018F9DF00D1124EC0FFD1F1086F0
:1009E00081E0818712862296D783C683DF91CF91DB
:1009F0001F910F91FF90EF90DF900895CE010E941C
:100A0000B004C6CFFC0121E0613499F49C01255B60
:100A10003F4F61E0AC014E5F5F4F158666871786DA
:100A20005487438735962E173F07B9F7FC01158287
:100A300008953585631729F02F5F35962031C9F762
:100A40000895622F0C94B004CF93DF93FC0167FDEF
:100A500012C0283080F4442319F08581873059F082
:100A6000EF01A1E0B0E08D85882349F1119625962C
:100A7000A031B105C1F780E018C085E08A9FE00190
:100A80008B9FD00D1124CE0FDF1F442389F081E40A
:100A9000888785818F5F858325E02A9FC0012B9FF2
:100AA000900D1124E80FF91F8085DF91CF910895F3
:100AB00081E08887F1CF2770687B622B0FC06623A7
:100AC000E1F26770660F660F660F4423A1F360645E
:100AD00085818F5F85838770687F682B25E02A9FDB
:100AE000C0012B9F900D1124E80FF91F6087862FFE
:100AF000DCCFFC0121E0611102C006960895358526
:100B0000631739F02F5F35962031C9F790E080E008
:100B10000895069635E0239F800D911D11240895B8
:100B200081E00895FC0120812EBD9B0121503109F7
:100B300041F051810DB407FEFDCF4EB55EBD41932E
:100B4000F5CF61507109860F971F0DB407FEFDCFD9
:100B50002EB5FC0120830895E0916202F0916302BA
:100B6000808190916102892B80830895E0916202D7
:100B7000F091630290818091610280958923808346
:100B8000089590E020916402233339F40C96982F55
:100B9000990F990F990F80E008954896F8CFCF9359
:100BA000DF931F92CDB7DEB76983DC01ED91FC9135
:100BB0000280F381E02D41E050E0BE016F5F7F4F86
:100BC00009950F90DF91CF910895CF93DF931F92F6
:100BD000CDB7DEB76983DC01ED91FC910280F38132
:100BE000E02D41E050E0BE016F5F7F4F09950F900F
:100BF000DF91CF910895FC019485FB0184859813C2
:100C000003C081E0983008F080E00895CF93DF932F
:100C10001F92CDB7DEB76983DC01ED91FC910280B4
:100C2000F381E02D41E050E0BE016F5F7F4F0995F9
:100C30000F90DF91CF910895FC01848595850895EB
:100C4000FC0184899589089529EB31E0FC01318309
:100C50002083FB014089518962897389FC014283A9
:100C60005383648375830895DC01ED91FC91048CBA
:100C7000F58DE02D0994CF93CFB7F8948091F201D0
:100C800081115AC04BE351E0FA0194912AE531E019
:100C9000F9018491E92FF0E0EE0FFF1FE45EFE4FB3
:100CA000A591B4919C91982309F037C0E9ECF0E04C
:100CB0009491F9012491FA018491882309F42DC0BB
:100CC0009923E9F091509F30D0F4E92FF0E0E559F5
:100CD000F94F0C94252FAC06B0067A06A406A80698
:100CE0007F067F067F06B306B906BD06C106C706A6
:100CF0007F06CB06909180009F7790938000E82F2D
:100D0000F0E0EE0FFF1FE25FFE4FA591B4918FB7A9
:100D1000F8949C91292B2C938FBF81E10E943E0176
:100D20008CB580618CBD8CB580648CBD8FE00E94D9
:100D30003E0180E10E943E018091F2018F5F80932D
:100D4000F201CFBFCF910895909180009F7DD5CFC4
:100D500090918000977FD1CF94B59F7794BDCFCFEE
:100D600094B59F7DFBCF909190009F7790939000DA
:100D7000C6CF909190009F7DF9CF90919000977F82
:100D8000F5CF9091C0009F779093C000B8CF90911D
:100D9000C0009F7DF9CF9091C200977F9093C200D1
:100DA000AECF3F924F925F926F927F928F929F92BF
:100DB000AF92BF92CF92DF92EF92FF920F931F9369
:100DC000CF93DF9300D000D0CDB7DEB76C017A832C
:100DD00069835C834B8384E0482E360182E1680E90
:100DE000711C93E0392E5601A7E0AA0EB11C12E047
:100DF000552453944601B0E18B0E911C29813A8110
:100E00002115310509F4CDC0F60180A18230F1F041
:100E1000A8F5882309F457C0813091F7AE014F5FE0
:100E20005F4FBE016D5F7F4FC5010E94750488232F
:100E300009F4B7C0D6011596ED91FC911697808103
:100E400091968C939197818192968C93F6017682FC
:100E5000658230A2D60192968C919297843011F4DB
:100E600093961C92F60181A182508483258136815C
:100E7000308727838287818740A205C0833051F362
:100E8000843009F0BDCFD60192968C919297843030
:100E900019F1853009F44BC0823009F075C0AE01FC
:100EA0004F5F5F4FBE016D5F7F4FC5010E947504AC
:100EB000882309F476C0F601858984A3F601968219
:100EC000858210A29BCF148385819681908787832A
:100ED0001287118750A2A2CFAE014F5F5F4FBE01B4
:100EE0006D5F7F4FC5010E947504882309F459C0C6
:100EF000D60155968C915597833001F756968C9173
:100F000056978130D9F698969C91989757968C91E0
:100F1000992351F0882391F2F60153A2928996A366
:100F2000938997A385A3CACF823041F6F5CFAE014E
:100F30004F5F5F4FBE016D5F7F4FC5010E9475041B
:100F4000882379F1D60193968C919397882309F49D
:100F5000B5CF12968D919C91009709F4AFCFDC012B
:100F6000ED91FC910190F081E02D7401D6019596F0
:100F70000C91959797962C91979796964C9196975A
:100F800094966C9109959ACFF60185858823F9F09E
:100F9000813041F1D6011E968D919C91892B09F4E7
:100FA0008DCF0F900F900F900F90DF91CF911F91E9
:100FB0000F91FF90EF90DF90CF90BF90AF909F90F8
:100FC0008F907F906F905F904F903F900895919693
:100FD0008C9191978250990B1F969C938E931E979C
:100FE0001D965C9229813A818B819C81782F692F93
:100FF000F601468557854115510581F00196211569
:10100000310539F041505109578746872150310940
:10101000EDCF7B836C831A821982BCCF9C838B8338
:101020003A8329831586B6CF0895EF92FF92CF9326
:10103000DF93FC01E7018289823021F16787408BD1
:101040009B8193709330F1F49A8197FF1BC02E819E
:10105000308D321708F4208F282F30E0D901AA0FE5
:10106000BB1FA20FB31FAE0FBF1F9F7017969C939D
:1010700017979C8118969C93189794E019969C93C7
:101080008F5F828BDF91CF91FF90EF900895EF9269
:10109000FF920F9302970E9415080F91FF90EF9017
:1010A0000895FC018789089570E0660F771F860F09
:1010B000971FFC0185859685089581E0623009F0CF
:1010C00080E0089581E0633009F080E00895FC013C
:1010D00086810895CF93DF93EC018C819D81DC01A3
:1010E000ED91FC910480F581E02D6E8109951F86BC
:1010F000188A81E08A8B1E821B8A1C8A1D8A1E8A9E
:101100001F8A80E0DF91CF9108952E9808952E9A3E
:10111000089570E0660F771F860F971FFC015687B2
:10112000458781E00895FC01A281B3810D90BC91B7
:10113000A02D9C910190F081E02D85818927862347
:1011400081F08091B103962349F0482B841749F030
:101150004093B10360E080E00C9412034095482373
:10116000F5CF0895EF92FF920F931F93CF93DF93E4
:1011700000D000D000D0CDB7DEB77C011E830D8338
:101180009A838983CE0105969C838B8341E061E03D
:1011900004970E94930842E062E0CE0101960E940B
:1011A000930844E064E0CE0101960E94930848E071
:1011B00068E0CE0101960E94930840E160E1CE0113
:1011C00001960E949308ED81FE81918182819111A7
:1011D00002C0882321F09093160280931702F80131
:1011E0008081F701858326960FB6F894DEBF0FBE87
:1011F000CDBFDF91CF911F910F91FF90EF90089598
:10120000089580E00895089580E00895FC017687B0
:1012100065870895DC01ED91FC91068CF78DE02D3A
:10122000099591E089270895862F089581E0862702
:10123000089521E0FC018485883008F020E0822FA9
:10124000089508950F931F93CF93DF93D82FC62F40
:101250008A0180E591E00E943B010E948508D260EE
:10126000DEBDF8018C2F882339F00DB407FEFDCFC9
:1012700091919EBD8150F7CFC00FD12FD11D0DB4DC
:1012800007FEFDCF0E948708CE01DF91CF911F910D
:101290000F9108950F931F93CF93DF9300D0CDB795
:1012A000DEB7182F062F80E591E00E943B010E94D7
:1012B0008508126019830A8362E070E0CE0101960E
:1012C0000E9492050E9487080F900F90DF91CF91A6
:1012D0001F910F9108959F92AF92BF92CF92DF928C
:1012E000EF92FF920F931F93CF93DF936C01C42F64
:1012F000D22F99249394E62EF12CEE0CFF1CE80ECD
:10130000F91E86E5E80EF11CA42EB12CABE2AA0E64
:10131000B11CAA0CBB1CAC0CBD1CF70180819181D7
:10132000DC01ED91FC910280F381E02D202F4D2F07
:101330006C2F0995182F803EC9F5C1112BC061E0B3
:1013400088EE0E944A0966E670E080E090E00E9424
:101350003702F70180819181DC01ED91FC910190D0
:10136000F081E02D202F4D2F6C2F0995182F8D30F7
:10137000D1F58FEF890D8330F8F0C11137C061E0EE
:1013800088EE0E944A0966E670E080E090E00E94E4
:1013900037021CC0F50180819181DC01ED91FC9147
:1013A0000284F385E02D6D2F0995D3CF8D3061F444
:1013B0008FEF890D833050F464E670E080E090E0B8
:1013C0000E9437029394A9CF882319F2812FDF91CD
:1013D000CF911F910F91FF90EF90DF90CF90BF9032
:1013E000AF909F900895882389F3C7CF8C2F90E00A
:1013F0008B96880F991F8C0D9D1DFC01808191811A
:10140000DC01ED91FC910284F385E02D6D2F0995AF
:10141000DDCF8EBD00000DB407FEFDCF8EB5089563
:10142000CF93C82F80E591E00E943B010E94850880
:101430008C2F0E94090A80E00E94090AC82F0E948E
:1014400087088C2FCF9108958F929F92AF92BF9271
:10145000CF92DF92EF92FF920F931F93CF93DF9380
:10146000882E962E5A010E947B036B017C0128E88E
:10147000C20E23E1D21EE11CF11C10E000E0D0E01E
:10148000C0E098280E947B036C197D098E099F0992
:1014900097FF1EC0692D80EF0E944A090E947B03BE
:1014A0006C197D098E099F0997FF09C088EC0E947D
:1014B000100A87FFF3CF60E888EC0E944A0988EFA2
:1014C0000E94100AC82FCF70C43081F0CE30B9F01E
:1014D0008C2FDF91CF911F910F91FF90EF90DF90B4
:1014E000CF90BF90AF909F908F9008950F5F1F4F48
:1014F000A114B10439F20A151B0521F6E9CFDF5F0B
:10150000D33009F0BFCFE4CFAF92BF92CF92DF923A
:10151000EF92FF920F931F93CF93DF93EC01B62EC0
:10152000A42E69010E9479057C0186EDE114F10485
:1015300009F447C0D701ED91FC91119787ED3097E1
:1015400009F43FC013969C9180E0981731F02081F8
:10155000A21629F033968F5FF8CFF0E0E0E0D601D5
:10156000ED93FC938BED309761F1228126952695C2
:10157000203108F02FE081E090E0A0E0B0E004C06E
:10158000880F991FAA1FBB1F2A95D2F70197F80150
:10159000918380836B2D80EE0E944A0988ED0E9422
:1015A000100AD70114969C91682F697F992329F01E
:1015B000CA58DF4F68816260682B88ED0E944A0933
:1015C00080E0DF91CF911F910F91FF90EF90DF901E
:1015D000CF90BF90AF90089588EF0E94100A807C52
:1015E0008034B1F018F4882301F10895803819F09F
:1015F000803CC9F0089588ED0E94100A81FD0DC05D
:1016000069EC88ED0E944A0982E080936D0208959A
:1016100088ED0E94100A81FDF3CF6BEC88ED0E94EB
:101620004A0983E0F2CF81E0F0CF61ED88ED0E94BE
:101630004A0910926D020895AF92BF92CF92DF9245
:10164000EF92FF920F931F93CF93DF93CDB7DEB747
:1016500028970FB6F894DEBF0FBECDBF8C017B017B
:101660006A01809164028333E1F45801A40EB51E2F
:10167000A016B10609F46FC00E94B60580EF0E9463
:10168000090A812F0E94090A802F0E94090A0F5F10
:101690001F4FF70181917F010E94090A0E94AC054A
:1016A000E7CF5B01A40EB51E8433C1F40E94B605DA
:1016B00019830A838D2D80688B83CC8264E070E06F
:1016C000CE0101960E949205AE14BF0409F441C0F8
:1016D000F70181917F010E94090AF6CF0E94B605A9
:1016E0000F3F110509F028F419820A8384E08B83E7
:1016F0000CC017FD17C019820A8333E016950795B1
:101700003A95E1F7007E0C600B8386E0C816D104A1
:10171000A0F5F701DE011496EA15FB0599F0819119
:101720008D93FACFC80126E0969587952A95E1F723
:10173000807E19830A830115104C10F48461D7CF81
:101740008C61D5CFB6016D5F7F4FCE0101960E94AF
:1017500092050E94AC05C60128960FB6F894DEBF2C
:101760000FBECDBFDF91CF911F910F91FF90EF90F2
:10177000DF90CF90BF90AF90089563E070E0CE010E
:1017800001960E949205F70181917F010E94090A4A
:10179000AE14BF04C1F7DDCFCF93DF931F92CDB757
:1017A000DEB7898341E050E0BE016F5F7F4F90E07C
:1017B00080E00E941C0B0F90DF91CF910895DA0119
:1017C000E0916502F0E0FE2FEE27E60FF71F90E0B4
:1017D000982F8827A901BD018E0F9F1F0C941C0B09
:1017E000CF93DF9300D0CDB7DEB779836A8322E051
:1017F00030E0AE014F5F5F4F60E170E00E94DF0BB1
:101800000F900F90DF91CF910895CF93DF9300D089
:10181000CDB7DEB779836A8322E030E0AE014F5F57
:101820005F4F64E070E00E94DF0B0F900F90DF913C
:10183000CF910895FF920F931F93CF93DF93EB0106
:10184000FC01178A168A2A81211109C02B812111D6
:1018500006C02C81211103C02D81222301F14115E5
:101860005105E9F08A01FC01F08C80E591E00E94CD
:101870003B01AE014E5F5F4F24E030E06CE070E072
:101880008F2D0E94DF0BB8018F2D0E94F00B81E09D
:1018900090E0DF91CF911F910F91FF90089580E02C
:1018A000F7CFCF93DF931F92CDB7DEB720916502BC
:1018B00030E0322F2227260F371F90E0982F8827FD
:1018C000498341E050E0BE016F5F7F4F820F931F5D
:1018D0000E941C0B0F90DF91CF910895089590E026
:1018E00080E008952F923F924F925F926F927F9285
:1018F0008F929F92AF92BF92CF92DF92EF92FF9220
:101900000F931F93CF93DF937B013A016901F90194
:10191000A080B180FB013180F90111821082FB01AE
:10192000828160E181FD60E288EE0E944A092A2CF2
:10193000A301F701608180E00E94240A582EF6E09E
:101940008F1310C088EF0E94100AF70192819D7FCB
:1019500084FF9260928360E191FD60E288EE0E94D4
:101960004A09E6CF811150C088EC0E94100A82FF1C
:101970005FC080E30E94100A482E8A151B0411F0F4
:1019800008F0422CF60180819181E501C81BD90B3A
:10199000D7FF02C0D0E0C0E0842C912C8C169D06AD
:1019A0000CF4E40180E591E00E943B010E9485086F
:1019B00088E00E94090AAE0170E060E0C8010E9460
:1019C0002B2F209721F0BE01C8010E9492050C0F19
:1019D0001D1F0E94870864E088EC0E944A09F601F6
:1019E00080819181880E991E91828082431420F01B
:1019F0008A149B0408F49CCF88EF0E94100AF70118
:101A0000928184FB91F99283852DDF91CF911F9173
:101A10000F91FF90EF90DF90CF90BF90AF909F908D
:101A20008F907F906F905F904F903F902F90089590
:101A300080EF582EE9CFAF92BF92CF92DF92EF9214
:101A4000FF920F931F93CF93DF9300D000D0CDB7B9
:101A5000DEB77C01690158011C821B821A8219823F
:101A60008E010F5F1F4F9E012D5F3F4F0E94840A22
:101A7000811109C049815A816B817C818501960160
:101A8000C7010E94720C0F900F900F900F90DF9182
:101A9000CF911F910F91FF90EF90DF90CF90BF906B
:101AA000AF9008952F923F924F925F926F927F92E4
:101AB0008F929F92AF92BF92CF92DF92EF92FF925E
:101AC0000F931F93CF93DF93CDB7DEB765970FB614
:101AD000F894DEBF0FBECDBF3C01342E222E402E27
:101AE000ED8AEAA4FBA4188A1F861E861D868E0135
:101AF000035F1F4F9E01215F3F4F40E00E94840A19
:101B0000582E811139C139822A824B822D892C832A
:101B1000DE82CD82B886AF82AE014F5F5F4F68E054
:101B200080E20E9422094D855E8560E080E10E948E
:101B3000240A81113FC1E114F10409F453C00F8557
:101B40001889D80112968C91129737FE51C0826085
:101B500012968C93650144244394C114D10409F472
:101B60002EC19C868B864D855E856F857889870121
:101B70009E01255F3F4FC3010E94720C582EB6E0B4
:101B80008B130EC088EF0E94100AEF85F88985FB41
:101B9000882780F98425928180FB91F99283DDCF9B
:101BA0008111EAC0ECA5FDA53097A1F06B857C857D
:101BB0000190F081E02D0190F081E02DC5018C199C
:101BC0009D099A8789879E01275F3F4FA7018CA5B2
:101BD0009DA509958B859C85C81AD90A88159905F4
:101BE00008F0BBCF4D855E8537FEE0C080EADFC0E0
:101BF000816012968C93129711966C908FEF860DE0
:101C0000803408F0D9C02D843E840E947B039B0160
:101C1000AC0128573C4E4F4F5F4F298B3A8B4B8B73
:101C20005C8BD80112968C9160E880FF60E488EEAE
:101C30000E944A09512C712C8114910409F48BC023
:101C400053018614970408F45401AD8AA7016A2D44
:101C500080E10E9422096A2D88E30E944A09F80166
:101C60006081606280EF0E944A0988EC0E94100A3D
:101C700087FFFBCF60E888EC0E944A0988EF0E944A
:101C8000100A8F70582E412CD12CC12C552021F1D7
:101C90000E947B0329893A894B895C89621B730BFB
:101CA000840B950B97FF18C036E0531609F43FC01C
:101CB0004EE05416B1F054E0551209C08FEFC81A27
:101CC000D80A2114310489F02C143D0471F460E029
:101CD00088E30E944A0941C08A189B08EA0CFB1C51
:101CE000ABCF439493E0491691F360E088E30E9400
:101CF0004A09D7016C9180E10E944A096D8988E305
:101D00000E944A09F8016081606280EF0E944A09DE
:101D100088EC0E94100A87FFFBCF60E888EC0E94E5
:101D20004A0988EF0E94100A8F70582EAFCF88EFB3
:101D30000E94100A85FB882780F9A1E08A27F80114
:101D4000928180FB90F9928360E890FF60E488EED6
:101D50000E944A09CACF5110BACF88EF0E94100AD8
:101D6000D80112969C91129785FB90F912969C933C
:101D70004D855E855520D1F0852D65960FB6F8947A
:101D8000DEBF0FBECDBFDF91CF911F910F91FF90AE
:101D9000EF90DF90CF90BF90AF909F908F907F900B
:101DA0006F905F904F903F902F90089580E860E093
:101DB0000E94240A582EE0CF8AED582EDDCF4D85A3
:101DC0005E85552009F412CFD7CF8F929F92AF92A4
:101DD000BF92CF92DF92EF920F93CF931F921F92F9
:101DE0001F921F92912C812CB12CA12CD12CC12C93
:101DF000E12C062F25E040E060E00E94520DC82F44
:101E00006CE271E080E090E00E9437020F900F904A
:101E10000F900F908C2FCF910F91EF90DF90CF907C
:101E2000BF90AF909F908F9008958F929F92AF92A6
:101E3000BF92CF92DF92EF920F931F921F923F9328
:101E40002F934A015A01D12CC12CEE24E39400E0D7
:101E500026E040E80E94520D0F900F900F900F90D7
:101E60000F91EF90DF90CF90BF90AF909F908F90A9
:101E700008952F923F924F925F926F927F928F922E
:101E80009F92AF92BF92CF92DF92EF92FF920F9309
:101E90001F93CF93DF93CDB7DEB767970FB6F89454
:101EA000DEBF0FBECDBF1B8A38E03C8B3CE33D8BD1
:101EB0008A3F3FEF9307D9F406ED802F67960FB660
:101EC000F894DEBF0FBECDBFDF91CF911F910F9170
:101ED000FF90EF90DF90CF90BF90AF909F908F904A
:101EE0007F906F905F904F903F902F900895122FAA
:101EF000342E462E7C01DC011696CD90DC9017978F
:101F0000CE01439617969C938E9316971A962C9310
:101F10009E012F5F3F4F42E150E060E0C7010E9409
:101F2000150F582EF701D782C682082F8111C5CF11
:101F300089849A846B847C84FD81FE8B3E813F8BF7
:101F4000670186E5C80ED11C5601212CD5018D9163
:101F50009C910097F1F52394B2E0AB0EB11CE0E147
:101F60002E12F4CFF60180819181009709F070C0A4
:101F70005394F2E0CF0ED11C30E15312F3CFF701AE
:101F80008681978107ED892B09F497CF1287232D3E
:101F900040E0642DC7010E942405D82E04ED88235B
:101FA00009F48BCF682FC7010E947905009709F4C7
:101FB00083CFDC0114961C936D2DC7010E94E50EA2
:101FC000082F882309F479CF6D2DC7010E940205DF
:101FD00074CFDC01ED91FC910084F185E02D099531
:101FE0008111B9CFF50180819181DC01ED91FC91E6
:101FF0000088F189E02D6F890995882309F4ABCF1A
:10200000F50180819181DC01ED91FC910484F585DD
:10201000E02DA301B4010995882361F0012F232D40
:10202000442D622DC7010E946B09082F813D09F4E0
:1020300092CF43CFF50180819181DC01ED91FC913C
:102040000684F785E02D6E8909958111E7CF83CF4E
:10205000DC01ED91FC910084F185E02D0995811161
:1020600087CFF60180819181DC01ED91FC910088A0
:10207000F189E02D6F89099581110DC0012F232D64
:10208000442D652DC7010E946B09082F877F813D74
:1020900009F013CF6DCFF60180819181DC01ED91C4
:1020A000FC910484F585E02DA301B401099581110B
:1020B0005FCFF60180819181DC01ED91FC91068476
:1020C000F785E02D6E8909958823C1F251CF8F9253
:1020D0009F92AF92BF92CF92DF92EF920F931F9396
:1020E0001F921F921F930F934A015A01D12CC12CAA
:1020F00032E0E32E022F26E040E80E94520D0F90BE
:102100000F900F900F901F910F91EF90DF90CF9055
:10211000BF90AF909F908F9008958F929F92AF92B3
:10212000BF92CF92DF92EF920F93C42ED12C1F92C9
:102130001F921F921F92912C812CB12CA12CE12C6B
:10214000062F21E043E2FC016285828193810E9497
:10215000520D0F900F900F900F900F91EF90DF9016
:10216000CF90BF90AF909F908F9008958F929F9245
:10217000AF92BF92CF92DF92EF920F93C62ED12CE7
:102180001F921F925F934F9324E0822E912C34E094
:10219000A32EB12CE12C00E020E043EAFC01628593
:1021A000828193810E94520D0F900F900F900F909B
:1021B0000F91EF90DF90CF90BF90AF909F908F9056
:1021C00008958F929F92AF92BF92CF92DF92EF923B
:1021D0000F93C42ED12C1F921F921F921F92912CED
:1021E000812CB12CA12CE12C062F23E043E2FC0131
:1021F0006285828193810E94520D0F900F900F9003
:102200000F900F91EF90DF90CF90BF90AF909F9085
:102210008F900895CF92DF92EF92FF921F93CF930A
:10222000DF93EC01162F7A01FA0180819181A2815E
:10223000B3818130F3E09F07F1E0AF07B105C9F149
:1022400070F48115E1E09E07AE07B10509F450C0B6
:1022500081309140A140B10561F180E041C08330FF
:1022600021E0920720E1A207B10529F083309340D5
:10227000A041B10591F7412F64E1CE010E948D107C
:10228000412F60E1CE010E948D1064E170E080E09A
:1022900090E00E9437026A85F7012181269521701E
:1022A0006770412F8A819B810E94390F1092F30140
:1022B000D4CF8091F3018111D0CF412F61E1CE01C4
:1022C0000E948D10412F60E1CE010E948D10412FA0
:1022D00064E0CE010E94E11081E08093F30181EB84
:1022E000DF91CF911F91FF90EF90DF90CF900895F5
:1022F000462F61E1CE010E948D10412F60E1CE0199
:102300000E948D101092F3018A8587701770880FD4
:10231000880F880F182B09F4A0CFEA80FB80670193
:10232000F6E5CF0ED11CD0E0C0E0D6018D919D9195
:102330006D010097C1F0DC01ED91FC910084F18505
:10234000E02D099518130FC0AB96CC0FDD1FCE0DF5
:10235000DF1D88819981DC01ED91FC910480F5817C
:10236000E02D09957ACF2196C031D105F1F675CFD0
:10237000CF92DF92EF92FF920F931F93CF93DF9351
:10238000CDB7DEB72E970FB6F894DEBF0FBECDBF28
:10239000FC012089211111C010E0812F2E960FB66B
:1023A000F894DEBF0FBECDBFDF91CF911F910F918B
:1023B000FF90EF90DF90CF9008957C010E947B0307
:1023C000F7010485158526853785601B710B820B07
:1023D000930B97FDE1CF81E090E09E878D878E0182
:1023E0000F5F1F4F9E01235F3F4F41E06285828157
:1023F00093810E941B0D182F811121C082E0D82EDD
:1024000001E089818D2139F119861A861B861C8687
:10241000AE01475F5F4F602FC7010E94B610C82E04
:10242000811119C0AE01475F5F4F602FC7010E9445
:102430000A11813B19F0882371F0C82E1C2D0E94CF
:102440007B036C597F4F8F4F9F4FF70164877587D0
:1024500086879787A2CFDD0C0F5F083091F601E0E9
:10246000F7018385801758F319861A861B861C8608
:10247000AE01475F5F4F602FC7010E94B610D82E94
:10248000811117C089859A8587709170813091403C
:1024900081F48B859C8581609C878B87AE01475F2B
:1024A0005F4F602FC7010E940A11813B29F0811103
:1024B00002C00F5FD5CFD82E1D2DC1CFCF92DF9296
:1024C000FF920F931F93CF93DF9300D000D0CDB72F
:1024D000DEB78C01F62E19821A821B821C82462FCF
:1024E00061E10E948D104F2D60E1C8010E948D10A6
:1024F0004F2D64E0C8010E94E11083E0C82ED12C6A
:10250000AE014F5F5F4F6F2DC8010E94B610811161
:1025100014C089819A81AB81BC819D7F83309140B9
:10252000A041B10551F064E670E080E090E00E94C7
:10253000370281E0C81AD10819F74F2D64E1C801AC
:102540000E948D104F2D60E1C8010E948D1064E142
:1025500070E080E090E00E9437020F900F900F90A3
:102560000F90DF91CF911F910F91FF90DF90CF904F
:1025700008952F923F924F925F926F927F928F9227
:102580009F92AF92BF92CF92DF92EF92FF920F9302
:102590001F93CF93DF93CDB7DEB7E8970FB6F894CC
:1025A000DEBF0FBECDBFDC011A963C91311131C1A7
:1025B000522E842E962E3C01FC01E280F380D7013E
:1025C000ED91FC910190F081E02D60E0C70109954B
:1025D0008C010097E1F4E6ED3E2E832DE8960FB6D0
:1025E000F894DEBF0FBECDBFDF91CF911F910F9149
:1025F000FF90EF90DF90CF90BF90AF909F908F9023
:102600007F906F905F904F903F902F900895FC01C6
:10261000C080D18037ED332EC114D104F1F25301C3
:10262000F4E0AF0EB11CDC011196BC92AE92149690
:102630005C92FE0131962F019F0148E050E060E07E
:10264000D30112968D919C910E94150F382EF8019E
:1026500014828111E1C08D8121ED322E893009F083
:10266000BCCF2980D701ED91FC910280F381E02D50
:10267000282D41E0692DC7010995F301828794ED6A
:10268000392E882309F4A9CF98859583682F8281F4
:1026900093810E94E50E382ED801CD92DC928823DA
:1026A00071F0D701ED91FC910480F581E02DD3010B
:1026B0001A966C91C7010995F30112868ECF2110ED
:1026C00006C0A114B10499F488ED382E86CF422DAE
:1026D000413208F040E250E09201F30162858281CC
:1026E00093810E94150F382E811177CFEACFD30145
:1026F00012962D903C9013971A961C91612FC10150
:102700000E947905FC01892B09F465CF1283B182FF
:10271000A08282E083831F921F925F924F9258E0C3
:10272000852E912C68E0A62EB12CD12CC12C79E2FB
:10273000E72E00E026E040EA612FC1010E94520D21
:10274000382E0F900F900F900F90811146CF8B81F4
:10275000F3018387820120E048E050E062858281B6
:1027600093810E946710382E811137CF4B815C8195
:1027700020E0D3011A966C911A9712968D919C9134
:102780000E946710382E811128CF498150E08E01B8
:102790000F5D1F4F20E0F3016285828193810E94CB
:1027A0006710382E811119CF1F921F921F921F920E
:1027B000912C812CB12CA12CE12C0E8129E040E040
:1027C000D3011A966C911A9712968D919C910E9442
:1027D000520D382E0F900F900F900F908111FDCE5B
:1027E00011E0F3018385811738F0412F68E0C301C0
:1027F0000E94E1101F5FF5CFD3010280F381E02D2D
:10280000EA58FF4F80818460808381E050968C93EA
:10281000E4CE49ED342EE1CED182C082DECE2F92BD
:102820003F924F925F926F927F928F929F92AF9260
:10283000BF92CF92DF92EF92FF920F931F93CF93AD
:10284000DF93CDB7DEB7C358D1090FB6F894DEBF1A
:102850000FBECDBFDC0116963C9119ED311115C0AC
:10286000022FC42ED62E3C01FC0124803580108E10
:10287000D101ED91FC910190F081E02D60E0C1016A
:1028800009952C010097E1F416ED812FCD57DF4F0C
:102890000FB6F894DEBF0FBECDBFDF91CF911F9171
:1028A0000F91FF90EF90DF90CF90BF90AF909F90EF
:1028B0008F907F906F905F904F903F902F900895F2
:1028C000FC01E080F18017EDE114F104F1F29301D5
:1028D000295F3F4FEE963FAF2EAFEE9731832083B7
:1028E00004839E0126593F4F48E050E060E0D30149
:1028F00014968D919C910E94150F182F81117EC105
:10290000AB961FADAB97F201F182E082D101ED9160
:10291000FC910280F381E02D2C2D40E06D2DC10152
:102920000995F3018683882309F466C1E2969FAD79
:10293000E2979087682F848195810E94E50EF82E9A
:10294000D101ED91FC91882379F0D20114961C926B
:102950000480F581E02DD30116966C91C101099593
:10296000F30116821F2D91CFD30116966C91D201DF
:1029700014961C920190F081E02DC10109950097F9
:1029800009F482CFFC010483111183C0EC96FFADE2
:10299000EC97CF57DF4FF883C158D0402E0121E488
:1029A000420E511CC3010296CE57DF4F9983888394
:1029B000C258D040120190E1290E311CCF57DF4F91
:1029C000B881C158D040FB1609F481C021E131E043
:1029D000F20131832083CE57DF4F88819981C2581D
:1029E000D0409383828314821186128615861786BF
:1029F000168610A211A212A210A636822582308657
:102A0000278234862386D30114960D90BC91A02D85
:102A1000C258DF4FB983A883CE57D040F301F68167
:102A2000C058DF4FF883C058D0408E010F5F1F4F52
:102A30002F2D49E050E06F2FCD010E9467108111CA
:102A400021C0AB80BC805F924F921F930F9330E404
:102A5000832E912CD12CC12C42E0E42E0F2D26E0A8
:102A600040E8C058DF4F6881C058D040C258DF4F9F
:102A700088819981CE57D0400E94520D0F900F90BF
:102A80000F900F90D30152968C91823001F1F39404
:102A900095CF133108F012E1412F50E09E012659E5
:102AA0003F4FD30116966C91169714968D919C9179
:102AB0000E94150F182F882309F468CFD301ED91D8
:102AC000FC910480F581E02DC3010995DECEF30170
:102AD0001289123009F08EC0848195810681EE96AC
:102AE0002EAD3FADEE97232B71F0602F0E9479053C
:102AF000FC01892B41F00283EE968EAD9FADEE97DF
:102B000091838083138368EE73E080E090E00E94FD
:102B100037021F921F921F921F92912C812CB12C71
:102B2000A12CD12CC12CE12CD3011F960C911F9705
:102B300029E040E016966C91169714968D919C9121
:102B40000E94520D182F0F900F900F900F9081112F
:102B5000B5CF68EE73E080E090E00E9437021F92EC
:102B60001F921F921F92F301018D2BE041E26681BB
:102B7000848195810E94520D182F0F900F900F9015
:102B80000F9081119BCF1F921F921F921F9200E006
:102B90002AE041E2D30116966C91169714968D9116
:102BA0009C910E94520DFE01EF5BFF4F87E191E087
:102BB00091838083FF93EF93CE0101969F938F9330
:102BC00080E4882E912C90E8A92EB12C22E2E22EEE
:102BD00026E041E8F3016681848195810E94520DCF
:102BE00081E0D30157968C930FB6F894DEBF0FBEE9
:102BF000CDBF4BCE11ED62CF14ED47CEF201F18285
:102C0000E0825CCFAF92BF92CF92DF92EF92FF92C1
:102C10000F931F93CF93DF9300D000D0CDB7DEB7D3
:102C20008C016B017A01809164028333E9F45B01CA
:102C30006801C40ED51EC016D106A9F10E94B605C2
:102C40008FE00E94090A812F0E94090A802F0E94AA
:102C5000090A0F5F1F4F80E00E94090AF501819366
:102C60005F010E94AC05E7CF843369F50E94B60589
:102C700019830A838F2D8F778B83EC8264E070E059
:102C8000CE0101960E949205A70170E060E0C601A6
:102C90000E942B2FE114F10421F0B701C6010E941C
:102CA00092050E94AC05C7010F900F900F900F90F6
:102CB000DF91CF911F910F91FF90EF90DF90CF9018
:102CC000BF90AF9008950E94B6050F3F110509F01F
:102CD00030F419820A831B8263E070E0D1CF17FDC4
:102CE0000BC019820A8333E0169507953A95E1F7F0
:102CF000007E08600B83F0CFC80126E0969587958B
:102D00002A95E1F7807E19830A830115104C18F487
:102D100080618B83E1CF8861FCCFCF93DF931F92DB
:102D2000CDB7DEB72091650230E0322F2227260F83
:102D3000371F90E0982F882741E050E0BE016F5F79
:102D40007F4F820F931F0E94021689810F90DF919F
:102D5000CF910895CF93C82F462F61E070E00E9475
:102D6000510C61E070E08C2F0E948D168111F9CF1B
:102D7000CF910895CF93C82F80E591E00E943B0149
:102D800068E070E08C2FCF910C94AA16CF93C82FD7
:102D900080E591E00E943B0160E170E08C2FCF91D3
:102DA0000C94AA16CF93DF93EC01888D883020F421
:102DB0000E94C61688E0888FDF91CF91089563E066
:102DC00070E00C948D16CF93C82F80E591E00E949F
:102DD0003B018C2FCF910C94DF16EF92FF920F9353
:102DE0001F93CF93DF937C0180916402D4E08333FF
:102DF00009F0D8E001E512E0C0E0F801219131913D
:102E00008F01F701848195812817390729F0CF5F59
:102E1000DC13F3CF80E006C08C2F0E94E3168431D0
:102E2000B1F781E0DF91CF911F910F91FF90EF906B
:102E30000895CF93DF93EC018C858830D0F40E9405
:102E4000E316843189F0882379F0883169F021E034
:102E50008C3159F4E881F9810084F185E02DCE01AF
:102E6000099521E0892B09F420E0822FDF91CF9191
:102E7000089580E0FBCFCF92DF92EF92FF92CF9345
:102E8000DF93EC018C85883068F40E94BA160E94AA
:102E90007B036B017C018C850E94E316811109C0C4
:102EA00088E08C87DF91CF91FF90EF90DF90CF90FB
:102EB000089561E070E080E090E00E9437020E9497
:102EC0007B03AB01BC014C195D096E097F098D853F
:102ED0009E85B0E0A0E0481759076A077B07D8F243
:102EE0008C850E94C616DCCFCF93FC01C08D80E597
:102EF00091E00E943B0160E270E08C2F0E94AA16D4
:102F000062E070E08C2F0E948D1684FD16C062E096
:102F100070E08C2F0E948D1683FF0AC048E162E0AA
:102F200070E08C2F0E94510C80E090E0CF910895CA
:102F300080E591E00E943B01E3CF40E162E070E078
:102F40008C2F0E94510C81E0F0CFCF93DF931F9222
:102F5000CDB7DEB741E050E0BE016F5F7F4F90E03C
:102F600080E00E94021689810F90DF91CF91089531
:102F7000CF93DF93C4E1D0E00E94A517882361F0CE
:102F800061E070E080E090E00E9437022197A1F7B5
:102F900080E0DF91CF91089581E0FBCF9F92AF92C7
:102FA000BF92CF92DF92EF92FF920F931F93CF9336
:102FB000DF9300D0CDB7DEB76C015B017A018901E8
:102FC0008091660281116FC060E372E080E090E062
:102FD0000E9437020E943B0680910201282F30E0B8
:102FE000F901E65DFE4FE491F0E0EE0FFF1FE25FB6
:102FF000FE4F459154915093630240936202F90150
:10300000E75BFE4FE491E09361020E943E010E9463
:10301000AC0580E591E00E943B0184E3809364026B
:1030200080E80E94CC0B0E94B817882309F470C076
:1030300088E00E94CC0B0E94A517883009F068C078
:1030400080E10E94CC0B0E94A517803109F060C07E
:1030500080E00E94CC0B0E94A517982E811158C0C9
:1030600041E050E0BE016F5F7F4F8FE190E00E9432
:1030700002168981833009F04BC080E48093650299
:1030800042E06EE170E0892D0E94510C42E06FE158
:1030900070E0892D0E94510C939488E09812F0CF33
:1030A00081E08093660280E591E00E943B0146E06A
:1030B00050E067E672E089E090E00E941C0BB601E8
:1030C0006E5F7F4F44E050E08FE090E00E941C0B69
:1030D000B7016E5F7F4F44E050E081E090E00E94D6
:1030E0001C0BB8016E5F7F4F44E050E085E090E03C
:1030F0000E941C0BF50182819381A481B58180938C
:10310000950290939602A0939702B09398026BC099
:1031100087E38093640280E80E94CC0B0E94B8177A
:10312000882331F188E00E94CC0B0E94A5178830DB
:10313000F9F480E10E94CC0B0E94A517982EE0E1E3
:103140008E1316C080E00E94CC0B0E94A51781113F
:103150000FC041E050E0BE016F5F7F4F89E390E018
:103160000E9402168981843019F49092650298CFEA
:1031700083E38093640280E80E94CC0B0E94B8171E
:10318000882379F180E10E94CC0B0E94A517803141
:1031900041F582E10E94CC0B0E94A517823109F50E
:1031A00080E00E94CC0B0E94A51781111AC084E018
:1031B0008093650285E5982E9A8241E050E0BE0139
:1031C0006E5F7F4F8BE190E00E941C0B998241E083
:1031D00050E0BE016F5F7F4F8AE190E00E941C0BC0
:1031E0005FCF109264020F900F90DF91CF911F91EB
:1031F0000F91FF90EF90DF90CF90BF90AF909F9096
:1032000008951F93CF93DF931F92CDB7DEB7182F8A
:1032100080E591E00E943B01812F0E94C10527E0DB
:10322000129FF0011124E75EFD4F22813381377038
:1032300041E050E0BE016F5F7F4F820F931F0E94FD
:10324000021689810F90DF91CF911F910895FC01A3
:10325000808D883040F4218D328D232B21F00E9407
:10326000011990E008958FEF9FEF0895CF93DF93BA
:10327000FC012485283028F08FEF9FEFDF91CF915C
:103280000895EC010190F081E02D0084F185E02D9E
:103290000995892B89F38C850E94011990E0EECF66
:1032A000DA01E0916502F0E0FE2FEE27E60FF71F4E
:1032B00090E0982F8827A901BD018E0F9F1F0C94C5
:1032C00002168F929F92AF92BF92CF92DF92EF92AF
:1032D000FF920F931F93CF93DF93CDB7DEB7609725
:1032E0000FB6F894DEBF0FBECDBF7C019091640293
:1032F000911115C018E0812F60960FB6F894DEBFCB
:103300000FBECDBFDF91CF911F910F91FF90EF9036
:10331000DF90CF90BF90AF909F908F90089508E07E
:10332000933309F404E06B0180E591E00E943B01D6
:103330009E012F5F3F4F5901490110E0812F0E94EC
:10334000DF16F40181934F018823C1F01F5F011341
:10335000F5CF00E0F50181915F018D3149F08831B1
:1033600039F08A51823020F00F5F1013F3CFC2CFB3
:1033700060E170E0802F0E94AA16102FA12EB12CC0
:10338000F501EE0FFF1FEF5AFD4F1182108283EE01
:1033900093E00197F1F742E870E060E0812F0E942E
:1033A000510C4FEF62E070E0812F0E94510CB6018A
:1033B000C114D10491F48091000190910101019612
:1033C0008115F0EC9F0708F45CC090930101809395
:1033D00000016091000170910101812F0E94050C94
:1033E00086E0E7E0F1E0DE01199601900D928A9502
:1033F000E1F7F70183818F778C8784818D878581C1
:103400008E87A7014E5F5F4F24E030E06CE070E0F4
:10341000812F0E94DF0BB601812F0E94F00B26E066
:1034200030E0AE01475F5F4F66E070E0812F0E94A1
:10343000DF0B61E070E0812F0E94AA1627E02A9D31
:10344000C0012B9D900D11249C01275E3D4F7901F9
:10345000F9011182108222E030E0AE01415F5F4F3E
:1034600068E270E0812F0E9450198F859889982713
:1034700089279827F7019383828316821582148205
:103480003ACF80E090ECA1CFCF92DF92EF92FF9203
:103490000F931F93CF93DF9300D000D000D0CDB710
:1034A000DEB78C016B017A01FC01808D883010F44D
:1034B0000E94C61689EB91E09A838983F601828186
:1034C0009381A481B5818B839C83AD83BE83B70137
:1034D000CE0101960E946119F801808F8830A0F416
:1034E000F586E486128E118E81E026960FB6F8944A
:1034F000DEBF0FBECDBFDF91CF911F910F91FF9027
:10350000EF90DF90CF90089580E0EFCF7F928F9281
:103510009F92AF92BF92CF92DF92EF92FF920F9362
:103520001F93CF93DF9300D0CDB7DEB7782E8B01FA
:103530004A01590122E030E0AE014F5F5F4F64E283
:1035400070E00E945019E980FA80FE24EF24FE24E6
:10355000E00EF11E9701377040916402072D10E0D4
:10356000433309F042C0085F1F4F102F0027110F8F
:10357000110F110FC901800F911F4733C9F1A90124
:103580004A0D5B1D4130584098F160E078E06B01D6
:10359000C21AD30AA601B4010E941C0BA5014C1942
:1035A0005D09B4016C0D7D1DC8010E941C0BEA0C65
:1035B000FB1CF982EA8222E030E0AE014F5F5F4FF0
:1035C00064E270E0872D0E94DF0B0F900F90DF9177
:1035D000CF911F910F91FF90EF90DF90CF90BF9010
:1035E000AF909F908F907F900895005F1F4FBDCF49
:1035F000A501B401DACFEF92FF921F93CF93DF932F
:1036000000D0CDB7DEB7182F22E030E0AE014F5F1B
:103610005F4F60E270E00E945019E980FA80FE245A
:10362000EF24FE2422E030E0AE014F5F5F4F60E206
:1036300070E0812F0E94501989819A8198278927EB
:103640009827E816F90689F487E0189FF0011124FD
:10365000E75EFD4FF582E482C7010F900F90DF9186
:10366000CF911F91FF90EF9008957C01DBCF1F93C6
:10367000CF93DF93182F80E591E00E943B01812FCB
:103680000E94FB1AEC01812F0E94DF16873121F086
:103690008C3111F0D0E0C0E0CE01DF91CF911F91CD
:1036A0000895CF93DF93EC018C85883060F40E94FD
:1036B000E316873111F08C3131F48C850E94371B71
:1036C0008115984088F3DF91CF910895FC0184859E
:1036D000883010F40C94371B90E080E00895CF926E
:1036E000DF92EF92FF921F93CF93DF93182F7B010E
:1036F000EA014130584010F0C0E0D8E080E591E0A8
:103700000E943B01812F0E94FB1A6C01812F0E94B5
:10371000DF16873111F08C3121F5CC16DD0670F300
:1037200080E591E00E943B019E01A70170E060E00E
:10373000812F0E94861A60E270E0812F0E94AA16F3
:1037400062E070E0812F0E948D1684FD0DC0812FF4
:103750000E94DF168823B9F080E591E00E943B01CA
:10376000EFCFD0E0C0E0DCCF40E162E070E0812F3D
:103770000E94510CCE01DF91CF911F91FF90EF90ED
:10378000DF90CF900895D0E0C0E0F4CF0F931F9367
:10379000CF93DF938C01EA01FC018485883048F4E3
:1037A0000E946F1B892B39F481E090E0F80193832C
:1037B0008283D0E0C0E0CE01DF91CF911F910F91C5
:1037C00008959F92AF92BF92CF92DF92EF92FF92B5
:1037D0000F931F93CF93DF938C015B01942EE52E03
:1037E000FC01C688D788F08C80E591E00E943B01FF
:1037F0008F2D0E94FB1AC92DDE2D8C179D0708F412
:10380000EC019E01A501B6018F2D0E94861AF801D8
:10381000868997898C0F9D1F978B868BCE01DF91B0
:10382000CF911F910F91FF90EF90DF90CF90BF90BD
:10383000AF909F900895FF920F931F93CF93DF93C4
:1038400000D0CDB7DEB7F82E22E030E0AE014F5FFA
:103850005F4F66E270E00E94501909811A811027BB
:103860000127102722E030E0AE014F5F5F4F66E294
:1038700070E08F2D0E94501989819A81982789279D
:1038800098270817190749F4C8010F900F90DF9186
:10389000CF911F910F91FF9008958C01E3CF1F935B
:1038A000CF93DF93182F87E0189FE0011124C75EA4
:1038B000DD4F88819981009761F480E591E00E9455
:1038C0003B01812F0E941B1C2E81821B9109998331
:1038D0008883DF91CF911F9108959F92AF92BF92FD
:1038E000CF92DF92EF92FF920F931F93CF93DF93CC
:1038F000EC017B0180916402811121C01B821A823C
:1039000088EE93E0A0E0B0E08C839D83AE83BF831C
:1039100087E491E09983888388E08C8788EE93E040
:103920009E878D87CE01DF91CF911F910F91FF90E0
:10393000EF90DF90CF90BF90AF909F90089534E0CC
:10394000932E833311F028E0922E81E5C82E82E079
:10395000D82E10E098E0B92EA12CD6012D913D91E2
:103960006D01F701848195812817390791F4812F22
:103970000E94E316082F873111F08C3139F5812F21
:103980000E944F1C892B59F50C3119F4812F0E948C
:10399000BA161F5F9112E1CFA11008C0D701ED91B7
:1039A000FC910084F185E02DC70109951B821A82E4
:1039B00088EE93E0A0E0B0E08C839D83AE83BF836C
:1039C00087E491E099838883BC86A8CF843149F04D
:1039D0008111DFCFF601329711821082DACFB12E3A
:1039E000D8CFAA24A394D5CF8F929F92AF92BF92A3
:1039F000CF92DF92EF92FF920F931F93CF93DF93BB
:103A0000CDB7DEB72F970FB6F894DEBF0FBECDBF90
:103A10005C014B017A01809164028823C9F104E0C2
:103A2000833309F008E0B501CE0101960E946D1CB8
:103A300081E5C82E82E0D82E10E0F6012191319167
:103A40006F01F501848195812817390751F4812F81
:103A50000E94E316873129F4A701B401812F0E9447
:103A60006F1B1F5F0113E9CFC7012F960FB6F894A4
:103A7000DEBF0FBECDBFDF91CF911F910F91FF90A1
:103A8000EF90DF90CF90BF90AF909F908F90089570
:103A9000F12CE12CE9CFFC018485883010F40C94E2
:103AA0004F1C90E080E008954F925F927F928F923A
:103AB0009F92AF92BF92CF92DF92EF92FF920F93BD
:103AC0001F93CF93DF9300D0CDB7DEB7782E6B0175
:103AD0004A01A82EB12C27E0829FC0011124FC01CD
:103AE000E75EFD4F7F010081118180E591E00E943A
:103AF0003B010815190554F4872D0E941B1CF70182
:103B000026818C01021B1109118300830115110507
:103B100019F5872D0E94DF16843159F0882349F06A
:103B200001E010E08C3111F410E000E011950195F6
:103B30001109C8010F900F90DF91CF911F910F9144
:103B4000FF90EF90DF90CF90BF90AF909F908F90BD
:103B50007F905F904F900895801691060CF4840139
:103B600087E08A9DF0018B9DF00D1124E75EFD4FEB
:103B7000E280F380C114D10451F12701F7E05F2204
:103B8000872D0E94C105840D951D20916402273365
:103B900009F453C09801240D351D2130384008F434
:103BA0004CC020E038E0490184189508A401B60112
:103BB0000E9402162601480C591C6801C818D90831
:103BC000872D0E94C105A601B2010E940216E00ED7
:103BD000F11E87E08A9DF0018B9DF00D1124E75EB8
:103BE000FD4FF382E28220813181201B310B318332
:103BF00020838681800F912F911D8A3F910510F4BB
:103C0000232BF1F487E08A9DF0018B9DF00D1124A8
:103C1000E75EFD4F1682F982EA8222E030E0AE01D3
:103C20004F5F5F4F68E270E0872D0E94DF0B60E41A
:103C300070E0872D0E94AA167CCFA801B601C5CFDF
:103C4000868377CFCF93DF93FC01218D328D2115B1
:103C5000310529F48FEF9FEFDF91CF910895EC01AB
:103C6000808D4217530708F0A9010E94541D1816B1
:103C7000190684F7298D3A8D281B390B3A8F298F25
:103C8000EBCF0F931F93CF93DF931F92CDB7DEB788
:103C9000FC01218D328D232B41F48FEF9FEF0F908C
:103CA000DF91CF911F910F9108958C0141E050E079
:103CB000BE016F5F7F4FFC01808D0E94541D18165E
:103CC00019065CF7F801818D928D0197928F818F93
:103CD000898190E0E4CFCF93DF931F92CDB7DEB719
:103CE00041E050E0BE016F5F7F4FFC0184850E9480
:103CF000541D1816190634F4898190E00F90DF9155
:103D0000CF9108958FEF9FEFF9CFFC018485883024
:103D100010F40C94541D90E080E008958F929F92CF
:103D2000AF92BF92CF92DF92EF92FF920F931F93C9
:103D3000CF93DF93CDB7DEB72A970FB6F894DEBFE7
:103D40000FBECDBF90916402911115C018E0812F74
:103D50002A960FB6F894DEBF0FBECDBFDF91CF918C
:103D60001F910F91FF90EF90DF90CF90BF90AF9099
:103D70009F908F90089528E0F22E933311F494E0F1
:103D8000F92E6B01082F80E591E00E943B019E0116
:103D90002F5F3F4F5901490110E0812F0E94DF162C
:103DA000F40181934F018823C1F01F5FF112F5CF19
:103DB000F12CF50191915F019D3149F0983139F075
:103DC0009A51923020F0F3941F11F3CFBFCF60E1EE
:103DD00070E08F2D0E94AA161F2DE12EF12CF70105
:103DE000EE0FFF1FEF5AFD4F1182108283EE93E01A
:103DF0000197F1F7402F70E060E0812F0E94510C95
:103E00004FEF62E070E0812F0E94510CB601CD2887
:103E100089F4809100019091010101968115F0ECE7
:103E20009F0798F190930101809300016091000138
:103E300070910101812F0E94050C61E070E0812FDB
:103E40000E94AA1627E02E9DC0012F9D900D1124DF
:103E50009C01275E3D4F7901F9011182108222E019
:103E600030E0AE01475F5F4F68E270E0812F0E9453
:103E7000501989859A85982789279827F701938370
:103E8000828316821582148262CF80E090ECCACFC2
:103E90000F931F93CF93DF93EC018B01888D8830B4
:103EA00010F40E94C616B80182E00E948E1E888F10
:103EB000883050F41D870C871A8E198E81E0DF91AF
:103EC000CF911F910F91089580E0F9CF0F931F9329
:103ED000CF938C01FC016481758181E20E948E1E6A
:103EE000C82F8830F8F480E591E00E943B018C2FC8
:103EF0000E94DF16833131F08C2FCF911F910F91EB
:103F00000C94BA1662E070E08C2F0E94AA16F80199
:103F100084819581EC2FF0E0EE0FFF1FEF5AFD4FEB
:103F200091838083CF911F910F910895CF92DF925B
:103F3000EF92FF921F93CF93DF93EC017B016A0115
:103F40008C85883048F40E94E316882319F08C850C
:103F50000E94BA1688E08C87F70182819381A48140
:103F6000B5810097A105B10551F490E080E0DF91A3
:103F7000CF911F91FF90EF90DF90CF9008958F3FEA
:103F80009F4FAF4FBF4F89F370E060E081E20E9426
:103F90008E1E182F8C87883040F780E591E00E94B4
:103FA0003B01A7014E5F5F4F24E030E06CE070E022
:103FB000812F0E94DF0BB601812F0E94F00B64E07D
:103FC00070E0812F0E94AA160E947B036B017C0186
:103FD0008C850E94E316873111F18C3101F1882321
:103FE00021F20E947B03AB01BC014C195D096E09F3
:103FF0007F098D859E85B0E0A0E084179507A60710
:10400000B70738F061E070E080E090E00E9437028E
:10401000DFCF8C850E94C61688E08C87A6CF81E012
:1040200090E0A5CF0F931F93CF93DF9300D0CDB730
:10403000DEB7FC0124852830E0F48C0180E591E0B6
:104040000E943B0122E030E0AE014F5F5F4F60E134
:1040500070E0F80184850E94501989819A8198271F
:10406000892798270F900F90DF91CF911F910F9183
:10407000089590E080E0F6CF0F931F93CF93DF93E6
:1040800000D0CDB7DEB7FC0124852830E0F48C01E8
:1040900080E591E00E943B0122E030E0AE014F5FFD
:1040A0005F4F64E070E0F80184850E9450198981B7
:1040B0009A819827892798270F900F90DF91CF91A9
:1040C0001F910F91089590E080E0F6CF8F929F921C
:1040D000AF92BF92EF92FF920F931F93CF93DF9314
:1040E000CDB7DEB7A1970FB6F894DEBF0FBECDBF38
:1040F0007C01FA01CB0119A2223008F42AE08E01DA
:104100000F5D1F4F822E912CB12CA12CBF01A50158
:1041100094010E94F42EF901CA016A3074F5605DC1
:10412000D8016E938D01232B242B252B79F790E05A
:1041300080E0109789F0FD0101900020E9F73197A8
:10414000AF014A1B5B0BD701ED91FC910280F3811B
:10415000E02DB801C7010995A1960FB6F894DEBF0E
:104160000FBECDBFDF91CF911F910F91FF90EF90C8
:10417000BF90AF909F908F900895695CD1CF8F9240
:104180009F92AF92BF92CF92DF92EF92FF920F93E6
:104190001F93CF93DF937C01EB016C0182E0C80E8B
:1041A000D11C4701E5E08E0E911C10E000E0F60105
:1041B00041916F0150E070E060E02AE0CE010E9482
:1041C00066205C01E881F9810190F081E02D6EE2CA
:1041D000CE0109958A0D9B1D080F191FC814D9041B
:1041E00031F7F701458150E070E060E02AE0CE0150
:1041F0000E946620800F911FDF91CF911F910F9138
:10420000FF90EF90DF90CF90BF90AF909F908F90F6
:1042100008950F931F93CF93DF93CDB7DEB7289701
:104220000FB6F894DEBF0FBECDBF8C01D8015996F2
:104230004D915C915A974115510551F0ED91FC91CA
:10424000048CF58DE02D70E060E0C8010995EECF9B
:10425000F801808D0E944F1C892BB1F148E050E09D
:10426000BE016F5F7F4FD80158968C910E94541DFC
:1042700018161906F4F4D801509684E0FE01319620
:1042800001900D928A95E1F78D8190E0982F882713
:104290002E81820F911DF801958B848B8F81282FA1
:1042A00030E0322F22278885820F932F911D928F25
:1042B000818F28960FB6F894DEBF0FBECDBFDF9179
:1042C000CF911F910F91089590E080E0F2CF4F922F
:1042D0005F926F927F928F929F92AF92BF92CF9296
:1042E000DF92EF92FF920F931F93CF93DF93CDB79F
:1042F000DEB763970FB6F894DEBF0FBECDBF7C016B
:104300006B013A01FB0120E090E080E06AE031912E
:10431000332309F461C040ED430F4A3008F04DC02B
:10432000689FA001699F500D1124CA01C097830F97
:10433000911D37FD9A958F3F910549F340F3F701A1
:1043400042815381648175818091A1029091A20282
:10435000A091A302B091A402481759076A077B07EE
:1043600009F40DC28701085F1F4F0E947B036F7025
:1043700077277C5FC8010E94481F813009F004C282
:1043800089EB91E09A838983F70182819381A481EB
:10439000B5818B839C83AD83BE8345E350E0BE0132
:1043A0006F5F7F4FC8010E941A0C892BA9F5D12C91
:1043B000C12CC8010E94D21617C03E3209F0BFCFEF
:1043C000233009F4BCCFD301A20FB11D12968C93F8
:1043D0002F5F90E080E09BCF233009F0B0CFF30156
:1043E0008583CC24C394D12CC60163960FB6F89470
:1043F000DEBF0FBECDBFDF91CF911F910F91FF9018
:10440000EF90DF90CF90BF90AF909F908F907F9074
:104410006F905F904F9008950E947B03F701778320
:10442000668342E050E0B7016A5F7F4FC8010E9497
:10443000E11B81E090E09A83898342E050E0BE0175
:104440006F5F7F4FC8010E94E11B80E091E09A837B
:10445000898342E050E0BE016F5F7F4FC8010E9438
:10446000E11B1A82198242E050E0BE016F5F7F4F6C
:10447000C8010E94E11B42E050E0BE016F5F7F4F28
:10448000C8010E94E11B42E050E0BE016F5F7F4F18
:10449000C8010E94E11B5601F6018081882301F1C9
:1044A0006501F60181912F01882311F08E32B1F45C
:1044B00046018A189B081814190474F48D8641E08B
:1044C00050E0BE01635F7F4FC8010E94E11BA40161
:1044D000B501C8010E94E11B5201DECF6201E1CFAC
:1044E0001D8641E050E0BE01635F7F4FC8010E941E
:1044F000E11BC12CDD24D394DA82C98242E050E072
:10450000BE016F5F7F4FC8010E94E11BDA82C98242
:1045100042E050E0BE016F5F7F4FC8010E94E11B87
:10452000C8010E947417892B09F441CFF3E0AF2E24
:10453000B12C230122E0420E511CD4C0F70142816C
:10454000538164817581808D918DA28DB38D4817C3
:1045500059076A077B0709F008C1848D958DC597B7
:1045600009F003C181A192A15DEFC52EDD24DA948B
:104570000C970CF4ADC04CE050E0BE016F5F7F4F74
:10458000C8010E94221E8B819C8198278927982729
:104590009A8B898BF7014681578129813A8142178D
:1045A000530709F0E7C097FFE5C08F7092703BEFAB
:1045B000C32EDD24DA94892B09F08AC06F807884B9
:1045C0007624672476242AEFC22EDD24DA9461143F
:1045D000710409F47DC0D12CC12C8D819E81982756
:1045E00089279827C816D906F8F441E050E0BE01A3
:1045F000635F7F4FC8010E94221E4D85442331F026
:1046000050E070E060E0C8010E94221E8D8581119B
:10461000ECCF44E050E070E060E0C8010E94221E50
:10462000FFEFCF1ADF0AD9CF912C812C41E050E067
:10463000BE016D5E7F4FC8010E94221E4B89842FF0
:10464000807C09F06CC0442331F050E070E060E001
:10465000C8010E94221E8B898111E8CF42E050E000
:10466000BE01615F7F4FC8010E94221E42E050E000
:10467000BE01635F7F4FC8010E94221E44E050E0EC
:1046800070E060E0C8010E94221E42E050E0BE01DE
:104690006F5E7F4FC8010E94221E8F8598894989CD
:1046A0005A898115914009F043C0CD84DE84DC2411
:1046B000CD24DC2481E0C816D104D1F54115544045
:1046C00009F04AC044E050E0B201C8010E94221E35
:1046D00021E0A21AB10809F46CCEFFEFCF16DF0675
:1046E00009F067CE0E947B033B014C01C8010E9488
:1046F0000921181619060CF421CF0E947B036619B4
:10470000770988099909693873418105910548F548
:1047100062E370E080E090E00E943702E7CF41E082
:1047200050E070E060E0C8010E94221E1B8A93CF17
:1047300054274527542770E060E0C8010E94221EDC
:10474000FFEF8F1A9F0A6814790409F06FCF96EF74
:10475000C92EDD24DA94BCCFE7EFCE2EDD24DA9427
:10476000B7CFCC24CA94DC2CB3CF6EEFC62EDD2499
:10477000DA94AECF4CEFC42EDD24DA94A9CF8EEFBD
:10478000C82EDD24DA9430CED12CC12C2DCECF9280
:10479000DF92EF92FF920F931F93CF93DF93CDB7EA
:1047A000DEB7AF970FB6F894DEBF0FBECDBF7C016A
:1047B0006A0109EB11E01A8309831C861B8688EEC7
:1047C00093E0A0E0B0E08D879E87AF87B88B8DE146
:1047D00091E09A878987188F0F8B198E1A8E1B8EFE
:1047E0001C8E88E089A31BA70AA71CA61DA61EA6CF
:1047F0001FA68091950290919602A0919702B09188
:1048000098028EA39FA3A8A7B9A78B839C83AD838F
:10481000BE8318861F82AE01465D5F4FCE010196B2
:104820000E94672181309105B1F4D701ED91FC918F
:104830000488F589E02D1DA30CA38CA59DA5AEA52C
:10484000BFA58EA39FA3A8A7B9A7A601BE016C5DB3
:104850007F4FC7010995AF960FB6F894DEBF0FBE24
:10486000CDBFDF91CF911F910F91FF90EF90DF901F
:10487000CF900895CF92DF92EF92FF920F931F9304
:10488000CF93DF93CDB7DEB7AF970FB6F894DEBF07
:104890000FBECDBF8C016B017A0189EB91E09A8349
:1048A00089831B821C821D821E821C861B8648EE09
:1048B00053E060E070E04D875E876F87788B2DE175
:1048C00031E03A872987988F8F8B198E1A8E1B8E2D
:1048D0001C8E28E029A39BA78AA71CA61DA61EA69E
:1048E0001FA6D8011C968C91883060F40E94E316B4
:1048F000882321F0F80184850E94BA1688E0D80147
:104900001C968C938091950290919602A0919702AB
:10491000B09198028EA39FA3A8A7B9A78B839C836D
:10492000AD83BE8318861F82AE01465D5F4FB60120
:10493000CE0101960E9467210097C1F0D801ED9148
:10494000FC910684F785E02D89EB91E09DA38CA373
:104950008CA59DA5AEA5BFA58EA39FA3A8A7B9A70B
:10496000A701BE016C5D7F4FC8010995AF960FB6D8
:10497000F894DEBF0FBECDBFDF91CF911F910F9195
:10498000FF90EF90DF90CF900895EF92FF920F93FA
:104990001F93CF93DF9300D000D0CDB7DEB78C014B
:1049A0007B01FB0184858830A8F089EB91E0F80158
:1049B000918380831282138214821582C8010F9022
:1049C0000F900F900F90DF91CF911F910F91FF905B
:1049D000EF90089580E591E00E943B0124E030E0F3
:1049E000AE014F5F5F4F6CE070E0F70184850E947D
:1049F000501989EB91E0F8019183808389819A8134
:104A0000AB81BC8182839383A483B583D7CF6F921C
:104A10007F928F929F92AF92BF92CF92DF92EF924E
:104A2000FF920F931F93CF93DF9300D0CDB7DEB7E4
:104A30007C01CDB6DEB6DC0157968C91811118C091
:104A4000912C892D0FB6F894DEBE0FBECDBE0F900F
:104A50000F90DF91CF911F910F91FF90EF90DF901A
:104A6000CF90BF90AF909F908F907F906F90089560
:104A70000E947B03F70183889488A588B68868190B
:104A800079098A099B0997FDDBCFADB6BEB6428591
:104A9000838590E08134910508F045C09A8389832D
:104AA00089819A812DB73EB7281B390B0FB6F89430
:104AB0003EBF0FBE2DBF8DB79EB701968C019E01E4
:104AC0002F5F3F4FD70116966C91169714968D91D4
:104AD0009C910E941B0D982E811113C029813A814F
:104AE0002330310570F0F70185859685009749F0F0
:104AF000DC01ED91FC910190F081E02D40E0B701E7
:104B000009950FB6F894BEBE0FBEADBE0E947B03E2
:104B1000F701208D620F711D811D911D638B748BB8
:104B2000858B968B8ECF80E490E0B8CF1F920F924A
:104B30000FB60F9211248F939F938091E100909173
:104B4000E100937F9093E10083FF0FC01092E90092
:104B500091E09093EB001092EC0092E39093ED00C3
:104B60001092110298E09093F00082FF22C093E02F
:104B70009093E9009091F200992319F09AE39093B1
:104B8000E80090910E02992341F090910E0291500D
:104B900090930E02911101C05D9A90910D0299239C
:104BA00041F090910D02915090930D02911101C02E
:104BB000289A84FF18C08091E2008E7E81608093E5
:104BC000E2008091E1008F7E8093E10080910F02EE
:104BD0008E7E806180930F029F918F910F900FBE08
:104BE0000F901F90189580FFF7CF8091E2008E7E86
:104BF00080618093E2008091E1008E7E8093E100ED
:104C000080910F028E7E8160E5CF1F920F920FB6CA
:104C10000F921124CF92DF92EF92FF920F931F9386
:104C20002F933F934F935F936F937F938F939F93B4
:104C3000AF93BF93EF93FF93CF93DF93CDB7DEB7DF
:104C40006C97DEBFCDBF1092E9008091E80083FF32
:104C500030C089E0FE017596EE2EDF2E815029F0DE
:104C60009091F10090833196F9CF289884E6809353
:104C70000D0282EF8093E8008D8987FF39C0909103
:104C8000E80090FFFCCF982F907609F033C19E8901
:104C90004F89588D2F89F88C911131C0803861F57A
:104CA000809110028093F1001092F1008EEF8093BA
:104CB000E8006C960FB6F894DEBF0FBECDBFDF9153
:104CC000CF91FF91EF91BF91AF919F918F917F9184
:104CD0006F915F914F913F912F911F910F91FF9095
:104CE000EF90DF90CF900F900FBE0F901F90189510
:104CF0009EEF9093E800C7CF1092F100D5CF91308E
:104D000059F48111D3CF4130510581F680911002C1
:104D10008D7F80931002CACF933049F48111C6CFA2
:104D20004130510519F6809110028260F2CF953022
:104D300041F48091E80080FFFCCF20682093E300DD
:104D4000B5CF963009F0A8C00B8D1C8D82E0109273
:104D5000E90010920C0210920B02F8122EC0109271
:104D60000A02109209020E94C8011F8299E09983E9
:104D7000FA8291E09E8390EA988791E39987209147
:104D80000B0230910C02275F3F4F3C832B838D83B6
:104D90001092E90010920C0210920B0210930A027A
:104DA0000093090249E050E0BE016F5F7F4F80E051
:104DB0000E9490010E94C80179CF10930A020093CB
:104DC00009020E94B601DC0112960D911C91011599
:104DD000110509F4BAC0D801ED91FC910480F58168
:104DE000E02D6E2D7D2DC8010995009709F0A8C012
:104DF000F80100851185EBCFF3E0FF120EC08F891B
:104E0000882309F440C0823061F440E86CE081E01E
:104E100091E00E94F527811149CF81E28093EB0058
:104E200048CF813029F440E867E089EF90E0F1CF86
:104E3000833099F70E94B601DC011296ED90FC9048
:104E40008E010F5F1F4F6801E114F10479F0D70163
:104E5000ED91FC910680F781E02DB801C70109951D
:104E6000080F111DF701E084F184EECFD8011C92E8
:104E7000F60101900020E9F73197BF016C197D0917
:104E800040E0C601C6CF63EE70E0FB01449150E004
:104E900080E80E9490010ACF973009F4BECF983085
:104EA00021F481E08093F10001CF993009F0FECE2A
:104EB000837009F0B2CFEFE6F2E081E031E096E3F3
:104EC0002191222371F08093E9003093EB00DF0100
:104ED00011972C912093EC009093ED008F5F873019
:104EE00079F78EE78093EA001092EA008F89809329
:104EF0001102DCCE8B8D9C8D1092E90010920C0279
:104F000010920B0290930A02809309020E94B6014C
:104F1000DC0112960D911C910115110509F47DCF4C
:104F2000D801ED91FC910190F081E02D6E2D7D2D49
:104F3000C80109958111BACEF80100851185ECCF21
:104F4000181619060CF4B2CE68CFF1E0FF1254CF58
:104F500067EE70E09ACF1F920F920FB60F92112456
:104F60002F933F938F939F93AF93BF938091F501BE
:104F70009091F601A091F701B091F8013091F40100
:104F800023E0230F2D3758F50196A11DB11D209365
:104F9000F4018093F5019093F601A093F701B0938B
:104FA000F8018091F9019091FA01A091FB01B09173
:104FB000FC010196A11DB11D8093F9019093FA01A6
:104FC000A093FB01B093FC01BF91AF919F918F9192
:104FD0003F912F910F900FBE0F901F90189526E8CC
:104FE000230F0296A11DB11DD2CFEF92FF920F9316
:104FF0001F93CF93DF93F82E192FE62E042F81E015
:10500000860F880F0E94620183E00E946201CF2D0B
:10501000D12FEC0EFD2EF11CCE15DF05B9F007FFE8
:1050200013C0FE0184910E946201182F80E00E944B
:105030006201812321968111EFCFDF91CF911F91E2
:105040000F91FF90EF9008958881EDCF81E0F5CF2B
:10505000CF9389EB91E09093760280937502109242
:105060007702109278021092790210927A0290934D
:105070007C0280937B0210927D0210927E0210923D
:105080007F0210928002909382028093810210929C
:1050900083021092840210928502109286029093ED
:1050A0008802809387021092890210928A021092DD
:1050B0008B0210928C0290938E0280938D0210923C
:1050C0008F0210929002109291021092920290938D
:1050D0009A028093990210929B0210929C02109265
:1050E0009D0210929E0290939402809393021092DC
:1050F0009502109296021092970210929802909345
:10510000A00280939F021092A1021092A20210921C
:10511000A3021092A4029093A6028093A50210927B
:10512000A7021092A8021092A9021092AA029093CC
:105130008503809384031092860310928703109254
:105140008803109289038FEA91E090930E03809375
:105150000D031092150381E080931603109217033C
:105160008FE093E0909314038093130310920F0346
:1051700088E0809310038CE3809311031092120354
:10518000EDE0F3E091E02FE033E015869687178697
:1051900034872387359683E0E835F807B1F7109216
:1051A000830381E18093AB0229E931E03093FD0272
:1051B0002093FC022DE033E03093FF022093FE02A7
:1051C00010920C031092000388E0809301032CE3FB
:1051D00020930203909303038093040384E080935D
:1051E0000503109206031092070310920803109211
:1051F000090310920A0310920B03A3E6B3E0FD012A
:1052000090E080E021913191232B09F01DC1880F9E
:10521000991FFC01ED59FC4F8CEF92E09183808344
:105220008DE093E09093E7028093E60285E791E0BA
:105230009093E3028093E20283E991E09093E50288
:105240008093E4021092F5021092F6021092F70297
:105250001092F8021092F9021092FB0281E0809302
:10526000F4021092F3021092E90288E08093EA02BD
:105270008CE38093EB021092EC021092ED0284E03A
:105280008093EE021092EF021092F0021092F1025F
:1052900090E080E02D913D91232B09F0DBC0880F39
:1052A000991FFC01ED59FC4F82EE92E091838083BF
:1052B0008FEC91E09093DA028093D90229EB31E0F0
:1052C0003093D4022093D30240EC4093D50298EA65
:1052D0009093D60281E08093D70255E45093D80290
:1052E0003093CE022093CD024093CF029093D00210
:1052F0008093D1025093D2023093C8022093C70208
:105300004093C9029093CA028093CB028093CC024F
:105310003093C2022093C1029FEF9093C3029093F7
:10532000C4029093C5021092C6021092BE0210925F
:10533000BD022FEB31E03093BC022093BB0226E18B
:1053400030E03093C0022093BF021092AF0210925F
:10535000AE0248EE53E060E070E04093B00250933C
:10536000B1026093B2027093B30227E431E030934C
:10537000AD022093AC0298E09093B80228EE33E09F
:105380003093BA022093B9029091A903911112C0EF
:105390001092A4031092A30328E631E03093A603F1
:1053A0002093A5032BE230E03093A8032093A703BA
:1053B0008093A90380919B0381112AC0C1E0C0930F
:1053C0008E03C0938F0384E993E0909391038093BD
:1053D0009003109293031092920383EE91E09093C6
:1053E0008B0380938A031092960310929503109278
:1053F000980310929703C0939903C0939A0381EC8A
:10540000809394030E94B6010E94F500C0939B0311
:10541000E0919503F0919603309719F583EA93E0B4
:1054200090939603809395038091970390919803AE
:105430002091A7033091A803820F931F90939803A4
:1054400080939703CF91089501968031910509F0DB
:10545000D9CEE6CE01968031910509F01BCF28CF39
:10546000FC01808191810097D9F783EA93E09183D1
:105470008083DACFCF93DF93CDB7DEB7A6970FB691
:10548000F894DEBF0FBECDBF789484B5826084BD32
:1054900084B5816084BD85B5826085BD85B5816038
:1054A00085BD80916E00816080936E0010928100B6
:1054B0008091810082608093810080918100816071
:1054C0008093810080918000816080938000809132
:1054D000910082608093910080919100816080931F
:1054E0009100809190008160809390008091C10034
:1054F00084608093C1008091C10082608093C1006C
:105500008091C10081608093C1008091C30081605F
:105510008093C3008091C00082608093C00080911E
:10552000C20081608093C20080917A008460809381
:105530007A0080917A00826080937A0080917A006C
:10554000816080937A0080917A00806880937A00ED
:10555000109211021092100210920F028091D70047
:1055600081608093D70080EA8093D80089B58061FC
:1055700089BD89B5826089BD09B400FEFDCF61E0B7
:1055800070E080E090E00E9437028091D8008F7C2C
:1055900080618093D8008091E000807F8093E0005C
:1055A0008091E1008E7E8093E1008DE08093E200A7
:1055B000559A209A86E08093020180E00E94F101D2
:1055C0008C0181E00E94F101080F191F82E00E9406
:1055D000F101080F191F83E00E94F101B801680F63
:1055E000791F072E000C880B990B61157105810539
:1055F000910511F00E94762E82E08093670208E602
:1056000012E05DE6E52E52E0F52E812C912C54013E
:1056100093940E94272EA50194010E948B2ED801FD
:105620006D938D01EA16FB06A1F709EB11E01A83D1
:1056300009838091C3029091C402A091C502B091E8
:10564000C6028B839C83AD83BE831E8B0D8B8091A2
:10565000C9029091CA02A091CB02B091CC028F8B6B
:10566000988FA98FBA8F1C8F0B8F8091CF0290914A
:10567000D002A091D102B091D2028D8F9E8FAF8FB8
:10568000B8A31AA309A38091D5029091D602A09144
:10569000D702B091D8028BA39CA3ADA3BEA36E0189
:1056A000B5E1CB0ED11C5E01EBE1AE0EB11C9E014B
:1056B0002F5F3F4FA601B501CE0181960E94CE1704
:1056C0001A8309831B821C821D821E8280E591E061
:1056D0000E943B0144E050E0BE016D5F7F4F8FE0D0
:1056E00090E00E9402164B815C816D817E818091E9
:1056F000860390918703A0918803B091890348178E
:1057000059076A077B0739F468EE73E080E090E0A0
:105710000E943702F9CF8BEB92E00E94661F109235
:10572000B10360E080E00E941203269A0E9487087D
:105730000E943B06209A289A259868E188E80E94F2
:105740004A0960E288E70E944A0960E088E70E940F
:105750004A0910E000E088E60E94100A0F5F1F4F20
:1057600080FF1CC061EC88ED0E944A0960E680ED74
:105770000E944A0964E088EE0E944A0988EE0E946D
:10578000100A82FFFBCF0E94EC0A60E288EC0E94C4
:105790004A0961E080E80E944A0903C00F3F1007F0
:1057A000D1F689ED92E09093F0028093EF022BEE18
:1057B000622E21E0722E4E0122E0820E911C30E01A
:1057C000432E30E0532E40E2342E109216021092F7
:1057D000170283B1182F107285FD0CC088EC0E944F
:1057E000100A85FF03C00E94EC0A10E2612F88ECCA
:1057F0000E944A0980916D02813009F45AC008F470
:105800005CC0823029F0833009F461C0212C16C0BD
:10581000212C8091AB02807F803181F40E947B0338
:1058200068537F4F8F4F9F4F609312027093130204
:1058300080931402909315023092AB0203E613E0BA
:105840007801D7018D919D917D01009739F0DC01A0
:10585000ED91FC910680F781E02D0995B3E8EB16F8
:10586000B3E0FB0671F78091AB02803409F467C0A6
:1058700088F5803209F44DC0803309F45AC0813173
:1058800009F06DC010928303F801819191918F010D
:10589000009739F0DC01ED91FC910480F581E02D59
:1058A0000995B3E003381B0779F782E18093AB02D7
:1058B00056C033E13093AB02A9CF8091AB02807F19
:1058C000803109F4A3CF81E18093AB029FCF2224E2
:1058D00023949FCF813509F4EFC0803809F4FFC0CD
:1058E0008035E9F588EC0E94100A86FF38C081E512
:1058F0008093AB020E947B036C5E7F4F8F4F9F4F64
:105900006093120270931302809314029093150215
:1059100026C00E947B030091120210911302209175
:10592000140230911502601B710B820B930B97FDD3
:1059300016C061E088EE0E944A0980E4B7CF88EE85
:105940000E94100A80FD0BC088ED0E94100A682F8B
:10595000686088ED0E944A09E0E5E093AB0260913F
:105960001702809116020E9412038091B8028830BB
:1059700008F4C7C06BEB72E0CE0101960E946D1C6B
:105980008B819C819093AF028093AE028D819E812A
:10599000AF81B8858093B0029093B102A093B20218
:1059A000B093B30289859A85AB85BC858093B40298
:1059B0009093B502A093B602B093B7028D85809301
:1059C000B8028E859F859093BA028093B902809128
:1059D000B802883008F069C08CEA92E00E9419177A
:1059E000882309F462C08CEA92E00E944B1D892B47
:1059F00009F45BC09E012F5F3F4F790110E000E08A
:105A00000E947B036093B4027093B5028093B60248
:105A10009093B7028CEA92E00E946B1E97FFBDC084
:105A20000E947B032091B4023091B5024091B602EE
:105A30005091B702621B730B840B950B2091B0023F
:105A40003091B1024091B2025091B30262177307D4
:105A500084079507F8F2E1E0F0E0EC0FFD1FE00F9E
:105A6000F11F1082012B09F12980DF92CF92BF92A2
:105A7000AF927F926F929F928F920E94322F0FB6B9
:105A8000F894DEBF0FBECDBF029709F080C0EB8C4B
:105A9000FC8C0D891E89E114F104D9F5011511055D
:105AA000E9F58CEA92E00E94511B4114510409F47B
:105AB0008CCE0E94000089CE0E947B0300911202CE
:105AC000109113022091140230911502601B710B8A
:105AD000820B930B97FD43CF80E88093AB02222D7E
